:020000040800F2
:10800000E806002065820008D38F0008278F00084B
:10801000D18F00085B840008159200080000000062
:10802000000000000000000000000000D78F0008E2
:108030005D84000800000000D58F0008D98F00087B
:108040007F8200087F8200087F8200087F8200080C
:108050007F8200087F8200087F8200087F820008FC
:108060007F8200087F8200087F8200087F820008EC
:108070007F8200087F8200087F8200087F820008DC
:108080007F8200087F8200087F8200087F820008CC
:108090007F8200087F8200087F8200087F820008BC
:1080A0007F8200087F8200087F8200087F820008AC
:1080B0007F8200087F8200087F8200087F8200089C
:1080C0007F8200087F8200087F8200087F8200088C
:1080D0007F8200087F8200087F8200087F8200087C
:1080E000618400087F8200087F8200087F82000888
:1080F0007F8200087F8200087F8200087F8200085C
:108100007F8200087F8200087F8200087F8200084B
:108110007F8200087F8200087F8200087F8200083B
:108120007F8200087F8200087F8200087F8200082B
:108130007F82000800000000000000007F8200082D
:108140007F8200087F8200087F8200087F8200080B
:108150007F8200087F8200087F8200087F820008FB
:108160007F8200087F8200087F8200087F820008EB
:108170007F8200087F8200087F82000800000000E4
:10818000000000007F8200080000000000000000E6
:108190007F82000800000000000000007F820008CD
:1081A0000000000000000000000000007F820008C6
:1081B0007F8200087F8200087F8200087F8200089B
:1081C0007F82000800F002F800F03CF80AA090E876
:1081D000000C82448344AAF10107DA4501D100F082
:1081E00031F8AFF2090EBAE80F0013F0010F18BF13
:1081F000FB1A43F001031847C8100000E810000004
:10820000103A24BF78C878C1FAD8520724BF30C8C2
:1082100030C144BF04680C60704700000023002494
:1082200000250026103A28BF78C1FBD8520728BF86
:1082300030C148BF0B6070471FB501F02FF81FBD5C
:1082400010B510BD00F0CFF81146FFF7F5FF00F0B4
:10825000F3FF00F0EDF803B4FFF7F2FF03BC00F00A
:10826000F5F800000948804709480047FEE7FEE7A7
:10827000FEE7FEE7FEE7FEE7FEE7FEE7FEE7FEE7D6
:1082800004480549054A064B7047000075900008F0
:10829000C5810008E8000020E8060020E802002070
:1082A000E802002053EA020C00F069802DE9F04B4F
:1082B0004FF00006002B1FBFB3FA83F503FA05F455
:1082C00024FA05F65E4012BF1643B2FA82F502FAAE
:1082D00005F4C5F120051EBF22FA05FC44EA0C0492
:1082E000203556EA044C4FEA144418BF641C4FF082
:1082F00000084FF00009904271EB030C39D30029BC
:1083000019BFB1FA81F701FA07F6B0FA80F700FA5F
:1083100007F6C7F120071EBF20FA07FC46EA0C0645
:108320002037B6FBF4FCA7EB0507103F07F01F0B47
:10833000CBF120060CFA0BFB2CFA06F644BFB34631
:108340000026202FA4BF5E464FF0000B5BEA060C10
:1083500008BF4FF0010B19EB0B09ABFB027C48EB9C
:108360000608C01B06FB02CC0BFB03CC71EB0C0117
:10837000C1E70B46024641464846BDE8F08B13B5BF
:108380004FF000004FF00001AFF30080BDE81C404B
:1083900070474FF0000200B51346944696462039C8
:1083A00022BFA0E80C50A0E80C50B1F12001BFF4AE
:1083B000F7AF090728BFA0E80C5048BF0CC05DF814
:1083C00004EB890028BF40F8042B08BF704748BF62
:1083D00020F8022B11F0804F18BF00F8012B7047D6
:1083E000704770477047754600F02CF8AE460500A0
:1083F0006946534620F00700854618B020B5FFF7C0
:108400003FFFBDE820404FF000064FF000074FF05F
:1084100000084FF0000B21F00701AC46ACE8C009A2
:10842000ACE8C009ACE8C009ACE8C0098D467047AB
:1084300010B50446AFF300802046BDE81040FFF7BA
:108440000ABF00000048704784000020014918203E
:10845000ABBEFEE7260002007047FEE77047000053
:1084600010B50B4C207870B100222021094800F093
:108470000FF9207848B100202070BDE810404FF47B
:10848000005000F00BB80122EFE70120F4E70000F4
:108490002D0000200000024070470000044910B584
:1084A0000A68024202D00860FFF7F6FF10BD000024
:1084B000143C01402DE9F84FDFF8ACA10022012463
:1084C00003254FF00F090AF1040BAAF1040E00BFB7
:1084D0000B6804FA02F63340B3426ED10F7907F00D
:1084E0000307012F01D0022F16D187684FEA4208F7
:1084F00005FA08FC27EA0C07D1F80CC00CFA08FCB6
:108500004CEA070CC0F808C04768B7430E79C6F3B9
:10851000001696403E4346600E79F643B6070AD0F1
:10852000C6684FEA420C05FA0CF7BE438F6807FA9B
:108530000CF73743C7600E7906F00306022E10D100
:10854000D60800EB8608D8F8206057074FEAD76CAA
:1085500009FA0CF7BE430F6907FA0CF73743C8F85E
:10856000207006684FEA420C05FA0CF7BE430F79FB
:1085700007F0030707FA0CF7374307604E6816F455
:10858000403F6BD0394E376847F4804737603668D4
:1085900022F0030706F480460096354E07EB060CE2
:1085A000DCF8086897074FEA177809FA08F7BE431E
:1085B000304FB84202D100271FE04FE02E4FB842A3
:1085C00001D1012719E02D4FB84201D1022714E053
:1085D0002B4FB84201D103270FE02A4FB84201D1F7
:1085E00004270AE0284FB84201D1052705E0274FAC
:1085F000B84201D1062700E0072707FA08F73743FA
:10860000CCF80878DAF800605746D1F804C09E43E9
:108610005FEACC2C00D51E433E60DBF800605F466D
:10862000D1F804C09E435FEA8C2C00D51E433E6007
:10863000DEF800607746D1F804C09E435FEA8C3CC8
:1086400000D51E433E60084F083F3E68D1F804C085
:108650009E435FEACC3C00D51E433E60521C102A6C
:10866000FFF436AFBDE8F88F083C014044380240C3
:1086700000300140000002400004024000080240B7
:10868000000C02400010024000140240001802409A
:108690000AB1816170470904FBE700000148806866
:1086A00070470000300000200248816802781144C1
:1086B00081607047300000200B4810B5016841F41C
:1086C00000710160016841F480610160016841F45A
:1086D00080710160032000F071F8002000F006F8BE
:1086E00000F024F8002010BD003C024070B50D4D94
:1086F00004464FF47A712878B1FBF0F00A49096812
:10870000B1FBF0F000F03CFB48B9102C07D200227E
:108710002146501E00F032F800206C6070BD012030
:1087200070BD0000300000203C0000200B4882B0EB
:10873000016841F480410160006800F480400090CD
:108740000648001F016841F080510160006800F098
:1087500080500090072002B000F030B8443802404A
:10876000002809DB00F01F02012191404009800030
:1087700000F1E020C0F8001170470000F0B40E4B8B
:108780001B680C46C3F30223C3F10705042D00D96F
:108790000425191D072901D2002300E0DB1E012654
:1087A00006FA05F1491E214099409E40761E16406A
:1087B0003143F0BC00F02FBD0CED00E0064900F0A5
:1087C000070208684FF6FF03184040EA0220034AF8
:1087D00010430860704700000CED00E00000FA054F
:1087E0002DE9F0470E46050065D0DFF81481D8F872
:1087F0000000F7B200F00F00B04207D288F8007016
:10880000D8F8000000F00F00B04254D128683D4C69
:10881000810712D5400703D5206840F4E05020605E
:108820002878000703D5206840F460402060206865
:10883000A96820F0F000084320602878C0072DD0F8
:10884000304968680839012812D0022813D003285B
:1088500011D00968890700292DDA216821F0030168
:1088600001432160FFF71AFF814641F2883A0EE08A
:1088700009688903EFE709688901ECE7FFF70EFF54
:10888000A0EB0901514502D90320BDE8F08720681B
:10889000696800F00C00B0EB810FEFD1D8F8001040
:1088A000404601F00F01B14207D90770006800F09F
:1088B0000F00B04201D00120E7E72878400705D536
:1088C0002068E96820F4E050084320602878000719
:1088D00006D52068296920F4604040EAC100206084
:1088E00000F038F82168084AC1F30311515CC84010
:1088F0000649086006480068FFF7F8FE0020C4E754
:10890000003C024008380240A69200083C000020CB
:10891000340000200448054900680968044AC1F38E
:108920008221515CC84070473C000020083802405A
:10893000B69200080448054900680968044AC1F372
:108940004231515CC84070473C000020083802406A
:10895000B6920008224810B5006810F00C022148B9
:1089600015D04110042A11D01D4C241F082A0FD005
:108970000C2A0CD12268236802F03F025B0221D549
:108980002068C0F38810A0FB010120E0084610BD5C
:108990002268236802F03F025B0205D52068C0F31D
:1089A0008810A0FB010104E02168C1F38811A1FB3C
:1089B00000010023FFF776FC2168C1F30141491C47
:1089C00049000AE02168C1F38811A1FB00010023DE
:1089D000FFF768FC2168C1F30271B0FBF1F010BD34
:1089E000083802400024F4002DE9F84F04007DD03F
:1089F000DFF878B32078ABF10407C007A7F10405CE
:108A000050D0DBF800105846C1F3810101290FD086
:108A10000168C1F38101022902D13968490207D4F2
:108A20000068C0F38100032809D13868400206D5E8
:108A30002868800336D560680028D8D032E06068A6
:108A4000B0F5803F10D0B0F5A02F286810D020F4EA
:108A500080302860286820F4802028606068A0B1F9
:108A6000FFF71CFE06460CE0286840F48030F4E76F
:108A700040F480202860F7E7FFF710FE801B642891
:108A800076D828688003F7D50CE0FFF707FE064686
:108A900005E000BFFFF702FE801B6428F0D82868BD
:108AA0008003F7D42078DFF8C89280074FF0000ADF
:108AB00044D5DBF80010584611F00C0F0FD00168B8
:108AC000C1F38101022902D13968490207D5006842
:108AD000C0F3810003280AD13868400207D428680F
:108AE000800715D5E068012800D111E03AE1E0687F
:108AF000B0B10120C9F80000FFF7D0FD064604E040
:108B0000FFF7CCFD801B0228BAD828688007F7D56C
:108B10002868216920F0F80040EAC10028600DE0D3
:108B2000C9F800A0FFF7BAFD064604E0FFF7B6FD5E
:108B3000801B02281CD828688007F7D420780007FB
:108B400027D5DFF828828B48616908F16C0881B16C
:108B500001210160FFF7A2FD064604E0FFF79EFD3C
:108B6000801B022804D8D8F800008007F6D510E052
:108B700089E0C0F800A0FFF791FD064605E000BFC0
:108B8000FFF78CFD801B02287DD8D8F800008007F5
:108B9000F6D42078400769D574484FF00008383083
:108BA0000068C0000BD471483830016841F0805132
:108BB000016000684FF0010800F0805000906E4E98
:108BC0003068C00511D4306840F480703060FFF721
:108BD00065FD009006E000BFFFF760FD0099401AB8
:108BE000022850D83068C005F6D5604EA0686836B7
:108BF00001280FD00528306810D020F00100306027
:108C0000306820F004003060A068B8B1FFF746FD7E
:108C100000900FE0306840F00100F4E740F00400FD
:108C20003060F7E7FFF73AFD0099411A41F28830CA
:108C3000814264D830688007F4D50EE0FFF72EFD3E
:108C4000009007E0FFF72AFD0099411A41F28830B1
:108C5000814254D830688007F4D4B8F1000F05D0B1
:108C600042483830016821F080510160A069A8B302
:108C7000DBF80010C1F38101022947D00228C9F8AE
:108C800060A005D000E03AE0FFF708FD044639E0B7
:108C9000FFF704FD064604E0FFF700FD801B0228F5
:108CA0002DD828688001F7D4F4E907010843E1686A
:108CB000324A490802EB0141A26841EA82110843A5
:108CC000217C40EA0160217D40EA0170386001208A
:108CD000C9F86000FFF7E2FC044606E044E000BF8C
:108CE000FFF7DCFC001B022809D828688001F7D5B3
:108CF0003AE000BFFFF7D2FC001B022802D9032094
:108D0000BDE8F88F28688001F4D42DE00128F7D061
:108D10003868E26900F48001914223D1226A00F0B0
:108D20003F0191421ED147F6C071626A0140B1EB2A
:108D3000821F17D1A26A4FF0FF3300F4403103EBDA
:108D40005202B1EB024F0DD194F82C2000F070616B
:108D5000B1EB026F06D194F8301000F0E040B0EBB8
:108D6000017F01D00120CBE70020C9E7083802408D
:108D700000004742800E4742007000400000FFFFA5
:108D800010B5401EB0F1807F01D3012010BD4FF01F
:108D9000E02460610F21601700F03DFA0020A0611F
:108DA00007202061002010BD70B5040004D094F8A5
:108DB0003D00002510B106E0012070BD84F83C5054
:108DC000204600F023F8242084F83D002068C16884
:108DD00021F40051C160204600F05AF92068016971
:108DE00021F4904101612068416921F02A0141612B
:108DF0002068C16841F40051C1602564202084F8D6
:108E00003D0084F83E00002070BD000010B586B023
:108E1000044614216846FFF7BCFA134920688842CB
:108E200020D112480021026842F40032026000683A
:108E300000F4003005900D481038026842F001023D
:108E40000260006800F0010005900C2000900220F4
:108E5000CDE90101032003900720049069460448EE
:108E6000FFF728FB06B010BD004400404038024028
:108E7000000002402DE9F843044690F83D001F46EB
:108E800016460D4620284CD1C5B1BEB194F83C0021
:108E9000012846D0012084F83C004FF00008C4F8B7
:108EA0004080212084F83D00FFF7F8FBA68481462E
:108EB000E684A068B0F5805F03D004E00120BDE83F
:108EC000F883206928B12E465FF0000584F83C80C5
:108ED0000EE00026FAE78021204600F05FF9A0B9F5
:108EE000AEB116F8010B21684860E08C401EE084AA
:108EF000E08C4B464FF0000200970028EBD14FF07A
:108F00004001204600F04AF930B10320D7E735F898
:108F1000020BC0F30800E6E7202084F83D000020A3
:108F2000CDE70220CBE7FEE730B587B014216846D5
:108F3000FFF72FFA23480024016841F00401016083
:108F4000016801F004010591016841F080010160B0
:108F5000016801F080010591016841F001010160A3
:108F6000016801F001010591016841F00201016011
:108F70000068154D00F002000590002220212846CF
:108F8000FFF786FB4FF4005000904FF40410CDE93A
:108F9000010469460D48FFF78DFA2020009001205A
:108FA000CDE90104694628460394FFF783FA0022BD
:108FB00011462820FFF7E2FB2820FFF7D1FB07B07E
:108FC00030BD00003038024000000240000802407E
:108FD000FEE7FEE770477047FFF766BB30B593B01A
:108FE00034216846FFF7D5F914210DA8FFF7D1F910
:108FF0001E480025016841F080510160006800F0C2
:10900000805012901A48016821F4404141F4804197
:1090100001600068022400F4404012900120039097
:109020001020009406940490CDE907504FF4A870E6
:1090300009900420CDE90A0468460C94FFF7D4FC9B
:1090400008B172B6FEE70DA90F2081E831004FF498
:109050008050CDE9100502210DA8FFF7C1FB0028C3
:1090600001D072B6FEE713B030BD000040380240B8
:10907000007000400448016841F470010160024939
:10908000024880390860704788ED00E000800008E1
:1090900070B5044600680169E26821F4405111434B
:1090A00001612169A068E2690843616911430843CD
:1090B0002168CA6849F20C639A430243CA60206877
:1090C0004169A26921F4407111434161314920682D
:1090D000884202D03049884202D1FFF72BFC01E0E0
:1090E000FFF718FCE2690023192164253226B2F546
:1090F000004F626828D0A0FB0101930F9200FFF798
:10910000D1F80146B0FBF5F06FF01802504301EBC7
:10911000800006EB0010B0FBF5F000F0F002B1FBB0
:10912000F5F002EB0012B1FBF5F06FF018035843B5
:1091300001EB800006EB0010B0FBF5F000F00F0033
:1091400021681044886070BDA0FB010192185B414A
:10915000FFF7A8F80146B0FBF5F00201B1FBF5F00E
:109160006FF01803584301EB800006EBC000B0FB22
:10917000F5F000F0F80002EB4002B1FBF5F05843C7
:1091800001EB800006EBC000B0FBF5F000F007003B
:10919000D6E7000000100140001401402DE9F04125
:1091A000984617460E460446069D27E0681C25D0C3
:1091B0002DB1FFF773FAA0EB0800A8421ED9206872
:1091C0000C3050E8001F21F4D07140E80012002A52
:1091D000F5D12068143050E8001F21F0010140E86B
:1091E0000012002AF5D1202084F83D0084F83E00CA
:1091F000002084F83C000320BDE8F081206800686E
:1092000036EA000004D00020B842CFD00020F3E7B7
:109210000120F9E7FEE70907090E002804DB00F149
:10922000E02080F80014704700F00F0000F1E0200B
:1092300080F8141D70470000FFF73EFAFFF7CEFEDE
:10924000FFF772FE134812490C2201604FF4E1311E
:10925000416000218160C160C0E904128161C16187
:10926000FFF7A2FD08B172B6FEE74FF0FF342346C8
:109270002D2209490748FFF7FDFDFFF70FFA00F51A
:109280007A7500BFFFF70AFAA842FBD9EFE70000A2
:109290000044004040000020000000204FF04070DB
:1092A000E1EE100A7047000000000000000001021B
:1092B000030406070809000000000102030400007F
:1092C000E09200080000002040000000008200083A
:1092D0002093000840000020A80600001C8200081F
:1092E0005468652075736572206170706C69636184
:1092F00074696F6E2069732063757272656E746C29
:10930000792072756E6E696E67200D0A000000008C
:109310000100000010000000000000000024F40024
:04000005080081C5A9
:00000001FF
