:020000040800F2
:10000000B0070020650200083F1400086F130008C5
:100010003D1400085B040008711600080000000091
:100020000000000000000000000000004314000871
:100030005D04000800000000411400084514000899
:100040007F0200087F0200087F0200087F0200088C
:100050007F0200087F0200087F0200087F0200087C
:100060007F0200087F0200087F0200087F0200086C
:100070007F0200087F0200087F0200087F0200085C
:100080007F0200087F0200087F0200087F0200084C
:100090007F0200087F0200087F0200087F0200083C
:1000A0007F0200087F0200087F0200087F0200082C
:1000B0007F0200087F0200087F0200087F0200081C
:1000C0007F0200087F0200087F0200087F0200080C
:1000D0007F0200087F0200087F0200087F020008FC
:1000E0007F0200087F0200087F0200087F020008EC
:1000F0007F0200087F0200087F0200087F020008DC
:100100007F0200087F0200087F0200087F020008CB
:100110007F0200087F0200087F0200087F020008BB
:100120007F0200087F0200087F0200087F020008AB
:100130007F02000800000000000000007F020008AD
:100140007F0200087F0200087F0200087F0200088B
:100150007F0200087F0200087F0200087F0200087B
:100160007F0200087F0200087F0200087F0200086B
:100170007F0200087F0200087F02000800000000E4
:10018000000000007F0200080000000000000000E6
:100190007F02000800000000000000007F0200084D
:1001A0000000000000000000000000007F020008C6
:1001B0007F0200087F0200087F0200087F0200081B
:1001C0007F02000800F002F800F03CF80AA090E876
:1001D000000C82448344AAF10107DA4501D100F002
:1001E00031F8AFF2090EBAE80F0013F0010F18BF93
:1001F000FB1A43F001031847481800006818000074
:10020000103A24BF78C878C1FAD8520724BF30C842
:1002100030C144BF04680C60704700000023002414
:1002200000250026103A28BF78C1FBD8520728BF06
:1002300030C148BF0B6070471FB501F0EFFB1FBD19
:1002400010B510BD00F0CFF81146FFF7F5FF01F033
:100250006FFB00F0EDF803B4FFF7F2FF03BC00F012
:10026000F5F800000948804709480047FEE7FEE727
:10027000FEE7FEE7FEE7FEE7FEE7FEE7FEE7FEE756
:1002800004480549054A064B70470000DD14000884
:10029000C5010008B0010020B0070020B003002015
:1002A000B003002053EA020C00F069802DE9F04B06
:1002B0004FF00006002B1FBFB3FA83F503FA05F4D5
:1002C00024FA05F65E4012BF1643B2FA82F502FA2E
:1002D00005F4C5F120051EBF22FA05FC44EA0C0412
:1002E000203556EA044C4FEA144418BF641C4FF002
:1002F00000084FF00009904271EB030C39D300293C
:1003000019BFB1FA81F701FA07F6B0FA80F700FADF
:1003100007F6C7F120071EBF20FA07FC46EA0C06C5
:100320002037B6FBF4FCA7EB0507103F07F01F0BC7
:10033000CBF120060CFA0BFB2CFA06F644BFB346B1
:100340000026202FA4BF5E464FF0000B5BEA060C90
:1003500008BF4FF0010B19EB0B09ABFB027C48EB1C
:100360000608C01B06FB02CC0BFB03CC71EB0C0197
:10037000C1E70B46024641464846BDE8F08B13B53F
:100380004FF000004FF00001AFF30080BDE81C40CB
:1003900070474FF0000200B5134694469646203948
:1003A00022BFA0E80C50A0E80C50B1F12001BFF42E
:1003B000F7AF090728BFA0E80C5048BF0CC05DF894
:1003C00004EB890028BF40F8042B08BF704748BFE2
:1003D00020F8022B11F0804F18BF00F8012B704756
:1003E000704770477047754600F02CF8AE46050020
:1003F0006946534620F00700854618B020B5FFF740
:100400003FFFBDE820404FF000064FF000074FF0DF
:1004100000084FF0000B21F00701AC46ACE8C00922
:10042000ACE8C009ACE8C009ACE8C0098D4670472B
:1004300010B50446AFF300802046BDE81040FFF73A
:100440000ABF0000004870474C01002001491820F5
:10045000ABBEFEE7260002007047FEE770470000D3
:10046000002229B101291AD002291BD04FF4407271
:100470000E490B6823F440730B600B6813430B6049
:100480000A6822F0F8020A600A68022303EBC0003F
:1004900002430A60086840F48030086070474FF4F7
:1004A0008072E5E74FF40072E2E70000103C024082
:1004B0001348016889050FD5016821F400710160B6
:1004C000016841F400610160016821F4006101608C
:1004D000016841F400710160016849050FD50168A8
:1004E00021F480610160016841F48051016001687C
:1004F00021F480510160016841F48061016070471E
:10050000003C024008490A6822F440720A600A6806
:1005100042F004020A600A684FF4803343EA002084
:1005200002430A6070470000103C0240064A13680C
:1005300023F44073136013681360136843F00103DE
:100540001360017070470000103C0240094910B56B
:100550000C6824F440740C600C6844F440740C6023
:100560000C6844F001040C600260BFF36F8F4360BD
:1005700010BD0000103C0240074A136823F440738A
:100580001360136843F480731360136843F001032E
:100590001360018070470000103C0240074A136856
:1005A00023F440731360136843F4007313601368FB
:1005B00043F001031360016070470000103C0240EB
:1005C0001C490868C2061C4805D5C26942F01002E1
:1005D000C26110220A600A68920605D5C26942F01B
:1005E0000802C26120220A600A68520605D5C26963
:1005F00042F00402C26140220A600A68120605D570
:10060000C26942F00202C26180220A600A68D20511
:1006100006D5C26942F00102C2614FF480720A60DD
:100620000A68920705D5C26942F02002C261022021
:10063000086070470C3C02402C01002070B5114945
:1006400004460020C86100F0FBF906460E4D09E0A3
:10065000601C07D024B100F0F3F9801BA04201D93F
:10066000032070BD2868C003F2D42868C00701D0F9
:1006700001202860286810F4F970F2D0FFF7A0FF7D
:10068000012070BD2C0100200C3C024030B502233B
:100690004371002305E000BF056851F823402C603A
:1006A0005B1C9342F8D30168096801224271084635
:1006B00030BD10B5040002D0607910B106E0012011
:1006C00010BD00202071204600F004F80120607168
:1006D000002010BD08B500680649884208D10648C8
:1006E000016841F480510160006800F4805000907E
:1006F00008BD000000300240303802402DE9F047CC
:10070000044622480F46017E01290AD00121804675
:1007100001764CF250394846FFF790FF020003D0B3
:100720002FE00220BDE8F0874FF0FF3038602068EE
:10073000174D012801D0A6681CE0207C6168FFF7F6
:10074000E1FE4846FFF77AFF0246286820F00400E1
:10075000286014E0217C3046FFF782FE4846FFF710
:100760006DFF0200286820F0FA00286001D03E608A
:1007700005E0761CD4E902100844B042EAD8FFF73D
:1007800097FE002188F818101046CBE72C010020B6
:10079000103C02400348016841F000410160002024
:1007A00070470000103C02402DE9F0471B4E054603
:1007B0001446307E1F468946012808D00120307635
:1007C0004CF250384046FFF739FF18B114E00220D0
:1007D000BDE8F0879DB1012D16D0022D19D022461B
:1007E0003B464846FFF7B2FE4046FFF727FF0C495D
:1007F0000A6822F001020A6000213176E8E7E1B2DE
:100800004846FFF793FEEFE7A1B24846FFF7B4FE74
:10081000EAE721464846FFF7C1FEE5E72C01002044
:10082000103C0240074900200A68002A09DA054AFC
:10083000054B0C3A1360054B13600968002900DA78
:1008400001207047103C024023016745AB89EFCD82
:100850002DE9F84FDFF8ACA10022012403254FF069
:100860000F090AF1040BAAF1040E00BF0B6804FA89
:1008700002F63340B3426ED10F7907F00307012F20
:1008800001D0022F16D187684FEA420805FA08FC0A
:1008900027EA0C07D1F80CC00CFA08FC4CEA070C4C
:1008A000C0F808C04768B7430E79C6F300169640F3
:1008B0003E4346600E79F643B6070AD0C6684FEA53
:1008C000420C05FA0CF7BE438F6807FA0CF7374362
:1008D000C7600E7906F00306022E10D1D60800EB91
:1008E0008608D8F8206057074FEAD76C09FA0CF74A
:1008F000BE430F6907FA0CF73743C8F82070066843
:100900004FEA420C05FA0CF7BE430F7907F00307D4
:1009100007FA0CF7374307604E6816F4403F6BD078
:10092000394E376847F480473760366822F003074E
:1009300006F480460096354E07EB060CDCF8086896
:1009400097074FEA177809FA08F7BE43304FB842C5
:1009500002D100271FE04FE02E4FB84201D10127FE
:1009600019E02D4FB84201D1022714E02B4FB842B5
:1009700001D103270FE02A4FB84201D104270AE032
:10098000284FB84201D1052705E0274FB84201D1D1
:10099000062700E0072707FA08F73743CCF808785E
:1009A000DAF800605746D1F804C09E435FEACC2CC9
:1009B00000D51E433E60DBF800605F46D1F804C0FE
:1009C0009E435FEA8C2C00D51E433E60DEF800603B
:1009D0007746D1F804C09E435FEA8C3C00D51E43A5
:1009E0003E60084F083F3E68D1F804C09E435FEA6E
:1009F000CC3C00D51E433E60521C102AFFF436AF9B
:100A0000BDE8F88F083C0140443802400030014006
:100A1000000002400004024000080240000C0240B6
:100A20000010024000140240001802400069084013
:100A300000D0012070470AB1816170470904FBE7CB
:100A4000014880687047000010000020024881685B
:100A50000278114481607047100000200B4810B5E7
:100A6000016841F400710160016841F48061016036
:100A7000016841F480710160032000F063F80020F8
:100A800000F006F800F024F8002010BD003C024001
:100A900070B50D4D04464FF47A712878B1FBF0F033
:100AA0000A490968B1FBF0F000F02EFB48B9102CA0
:100AB00007D200222146501E00F024F800206C606E
:100AC00070BD012070BD0000100000201C0000203F
:100AD0000B4882B0016841F480410160006800F475
:100AE000804000900648001F016841F0805101607D
:100AF000006800F080500090072002B000F022B89B
:100B000044380240F0B40E4B1B680C46C3F302237A
:100B1000C3F10705042D00D90425191D072901D2A9
:100B2000002300E0DB1E012606FA05F1491E2140E4
:100B300099409E40761E16403143F0BC00F099BDAE
:100B40000CED00E0064900F0070208684FF6FF03CD
:100B5000184040EA0220034A104308607047000032
:100B60000CED00E00000FA052DE9F0470E46050007
:100B700065D0DFF81481D8F80000F7B200F00F005C
:100B8000B04207D288F80070D8F8000000F00F00DB
:100B9000B04254D128683D4C810712D5400703D597
:100BA000206840F4E05020602878000703D52068D2
:100BB00040F4604020602068A96820F0F0000843FD
:100BC00020602878C0072DD030496868083901288E
:100BD00012D0022813D0032811D0096889070029F0
:100BE0002DDA216821F0030101432160FFF728FF7E
:100BF000814641F2883A0EE009688903EFE7096807
:100C00008901ECE7FFF71CFFA0EB0901514502D970
:100C10000320BDE8F0872068696800F00C00B0EBA5
:100C2000810FEFD1D8F80010404601F00F01B1421A
:100C300007D90770006800F00F00B04201D0012012
:100C4000E7E72878400705D52068E96820F4E050F8
:100C5000084320602878000706D52068296920F419
:100C6000604040EAC100206000F038F82168084A7E
:100C7000C1F30311515CC84006490860064800688A
:100C8000FFF706FF0020C4E7003C0240083802409E
:100C9000261A00081C000020140000200448054902
:100CA00000680968044AC1F38221515CC84070475A
:100CB0001C00002008380240361A00080448054984
:100CC00000680968044AC1F34231515CC84070476A
:100CD0001C00002008380240361A0008224810B5CF
:100CE000006810F00C02214815D04110042A11D0E0
:100CF0001D4C241F082A0FD00C2A0CD1226823680F
:100D000002F03F025B0221D52068C0F38810A0FBEF
:100D1000010120E0084610BD2268236802F03F026E
:100D20005B0205D52068C0F38810A0FB010104E038
:100D30002168C1F38811A1FB00010023FFF7B2FA7B
:100D40002168C1F30141491C49000AE02168C1F34F
:100D50008811A1FB00010023FFF7A4FA2168C1F369
:100D60000271B0FBF1F010BD083802400024F4001D
:100D70002DE9F84F04007DD0DFF878B32078ABF18F
:100D80000407C007A7F1040550D0DBF8001058464F
:100D9000C1F3810101290FD00168C1F3810102294A
:100DA00002D13968490207D40068C0F381000328E2
:100DB00009D13868400206D52868800336D56068B6
:100DC0000028D8D032E06068B0F5803F10D0B0F590
:100DD000A02F286810D020F480302860286820F4E4
:100DE000802028606068A0B1FFF72AFE06460CE06C
:100DF000286840F48030F4E740F480202860F7E76A
:100E0000FFF71EFE801B642876D828688003F7D57C
:100E10000CE0FFF715FE064605E000BFFFF710FEE9
:100E2000801B6428F0D828688003F7D42078DFF886
:100E3000C89280074FF0000A44D5DBF800105846EE
:100E400011F00C0F0FD00168C1F38101022902D10A
:100E50003968490207D50068C0F3810003280AD128
:100E60003868400207D42868800715D5E068012853
:100E700000D111E03AE1E068B0B10120C9F800000A
:100E8000FFF7DEFD064604E0FFF7DAFD801B0228CF
:100E9000BAD828688007F7D52868216920F0F800BB
:100EA00040EAC10028600DE0C9F800A0FFF7C8FDC6
:100EB000064604E0FFF7C4FD801B02281CD8286802
:100EC0008007F7D42078000727D5DFF828828B48E1
:100ED000616908F16C0881B101210160FFF7B0FD83
:100EE000064604E0FFF7ACFD801B022804D8D8F8C2
:100EF00000008007F6D510E089E0C0F800A0FFF7F9
:100F00009FFD064605E000BFFFF79AFD801B022803
:100F10007DD8D8F800008007F6D42078400769D53E
:100F200074484FF0000838300068C0000BD4714896
:100F30003830016841F08051016000684FF00108CD
:100F400000F0805000906E4E3068C00511D43068BB
:100F500040F480703060FFF773FD009006E000BF42
:100F6000FFF76EFD0099401A022850D83068C0057E
:100F7000F6D5604EA068683601280FD00528306885
:100F800010D020F001003060306820F004003060A4
:100F9000A068B8B1FFF754FD00900FE0306840F052
:100FA0000100F4E740F004003060F7E7FFF748FD88
:100FB0000099411A41F28830814264D83068800734
:100FC000F4D50EE0FFF73CFD009007E0FFF738FD99
:100FD0000099411A41F28830814254D83068800724
:100FE000F4D4B8F1000F05D042483830016821F040
:100FF00080510160A069A8B3DBF80010C1F3810142
:10100000022947D00228C9F860A005D000E03AE0E4
:10101000FFF716FD044639E0FFF712FD064604E02F
:10102000FFF70EFD801B02282DD828688001F7D419
:10103000F4E907010843E168324A490802EB01413B
:10104000A26841EA82110843217C40EA0160217DC7
:1010500040EA017038600120C9F86000FFF7F0FC39
:10106000044606E044E000BFFFF7EAFC001B02284C
:1010700009D828688001F7D53AE000BFFFF7E0FC07
:10108000001B022802D90320BDE8F88F28688001E0
:10109000F4D42DE00128F7D03868E26900F480012B
:1010A000914223D1226A00F03F0191421ED147F6BE
:1010B000C071626A0140B1EB821F17D1A26A4FF082
:1010C000FF3300F4403103EB5202B1EB024F0DD17C
:1010D00094F82C2000F07061B1EB026F06D194F807
:1010E000301000F0E040B0EB017F01D00120CBE7F1
:1010F0000020C9E70838024000004742800E4742FE
:10110000007000400000FFFF10B5401EB0F1807F6E
:1011100001D3012010BD4FF0E02460610F21601762
:1011200000F0A7FA0020A06107202061002010BD78
:1011300070B5040004D094F83D00002510B106E01D
:10114000012070BD84F83C50204600F023F8242094
:1011500084F83D002068C16821F40051C160204638
:1011600000F0C4F92068016921F490410161206810
:10117000416921F02A0141612068C16841F40051B0
:10118000C1602564202084F83D0084F83E000020E2
:1011900070BD000010B586B0044614216846FFF704
:1011A000F8F813492068884220D1124800210268CB
:1011B00042F400320260006800F4003005900D48EF
:1011C0001038026842F001020260006800F001007D
:1011D00005900C2000900220CDE90101032003902E
:1011E0000720049069460448FFF732FB06B010BDA3
:1011F0000044004040380240000002402DE9F84F12
:10120000044690F83E009A4616460D46202853D1D3
:10121000FDB1F6B194F83C0001284DD0012084F8CE
:101220003C0000272764222084F83E002763FFF754
:1012300007FCA6858146E685A0684FF480584045A6
:1012400001D1206940B12E465FF0000584F83C7062
:1012500027E00120BDE8F88F0026F7E74B46002283
:1012600020212046CDF800A000F0C6F908B10320E7
:10127000F0E726B1A06840451BD038B108E02068EF
:101280004068C0F3080025F8020B07E0206980B130
:101290002068406800F07F0006F8010BE08D401EDA
:1012A000E085E08D0028D9D1202084F83E00002080
:1012B000D0E720684068EFE70220CBE72DE9F8434C
:1012C000044690F83D001F4616460D4620284CD196
:1012D000C5B1BEB194F83C00012846D0012084F885
:1012E0003C004FF00008C4F84080212084F83D0005
:1012F000FFF7A6FBA6848146E684A068B0F5805F70
:1013000003D004E00120BDE8F883206928B12E460F
:101310005FF0000584F83C800EE00026FAE78021AB
:10132000204600F069F9A0B9AEB116F8010B2168AA
:101330004860E08C401EE084E08C4B464FF0000299
:1013400000970028EBD14FF04001204600F054F9FF
:1013500030B10320D7E735F8020BC0F30800E6E709
:10136000202084F83D000020CDE70220CBE7FEE7F7
:1013700030B587B014216846FFF70BF81F480024EA
:10138000016841F004010160016801F00401059168
:10139000016841F080010160016801F08001059160
:1013A000016841F001010160016801F0010105914E
:1013B000016841F0020101600068114D00F0020077
:1013C0000590002220212846FFF735FB4FF40050FE
:1013D00000904FF40410CDE9010469460948FFF775
:1013E00037FA202000900120CDE901046946284603
:1013F0000394FFF72DFA07B030BD000030380240EB
:1014000000000240000802400B4810B50949016085
:101410004FF4E1314160002181600C22C160C0E9DC
:1014200004128161C161FFF783FE002800D0FEE74E
:1014300010BD00000044004020000020FEE7FEE751
:1014400070477047FFF702BB30B593B03421684650
:10145000FEF79FFF14210DA8FEF79BFF1D480025F6
:10146000016841F080510160006800F080501290E6
:101470001948016821F4404141F48041016000684D
:10148000022400F4404012900120039010200094A8
:1014900006940490CDE907504FF4A87009900420F9
:1014A000CDE90A0468460C94FFF762FC00B1FEE740
:1014B0000DA90F2081E831004FF48050CDE91005CF
:1014C00002210DA8FFF750FB002800D0FEE713B063
:1014D00030BD000040380240007000400248016802
:1014E00041F470010160704788ED00E070B504467A
:1014F00000680169E26821F44051114301612169EA
:10150000A068E26908436169114308432168CA6819
:1015100049F20C639A430243CA6020684169A26998
:1015200021F440711143416131492068884202D061
:101530003049884202D1FFF7C1FB01E0FFF7AEFB63
:10154000E2690023192164253226B2F5004F626852
:1015500028D0A0FB0101930F9200FEF7A3FE0146E5
:10156000B0FBF5F06FF01802504301EB800006EB82
:101570000010B0FBF5F000F0F002B1FBF5F002EB6B
:101580000012B1FBF5F06FF01803584301EB800037
:1015900006EB0010B0FBF5F000F00F0021681044DE
:1015A000886070BDA0FB010192185B41FEF77AFED6
:1015B0000146B0FBF5F00201B1FBF5F06FF0180346
:1015C000584301EB800006EBC000B0FBF5F000F0E3
:1015D000F80002EB4002B1FBF5F0584301EB80004C
:1015E00006EBC000B0FBF5F000F00700D6E7000006
:1015F00000100140001401402DE9F04198461746C3
:101600000E460446069D27E0681C25D02DB1FFF745
:1016100017FAA0EB0800A8421ED920680C3050E849
:10162000001F21F4D07140E80012002AF5D1206893
:10163000143050E8001F21F0010140E80012002A98
:10164000F5D1202084F83D0084F83E00002084F885
:101650003C000320BDE8F0812068006836EA000005
:1016600004D00020B842CFD00020F3E70120F9E7F2
:10167000FEE70907090E002804DB00F1E02080F8EE
:101680000014704700F00F0000F1E02080F8141DF6
:101690007047000008B5A5208DF800008DF80110F6
:1016A0004FF0FF33022269460148FFF707FE08BDED
:1016B0002000002038B5044600208DF800001648B0
:1016C0000178491C0844091F50F8042C124800F006
:1016D00043F810B100F0CCF838BD20780121FFF7B5
:1016E000D9FF0E4D012220212846FFF7A4F9E17809
:1016F000A07800F097F88DF80000002220212846FD
:10170000FFF799F904484FF0FF3301226946443846
:10171000FFF7D4FD38BD0000640000200000024047
:10172000A0F10051B1F5E03F0ED909490144B1F5EE
:10173000804F09D9A0F10061B1F5002F04D305490C
:101740000844B0F5805F01D855207047AA20704743
:101750000040FEDF00C0FDBFF8B50746FF2016467B
:101760000D46002407E0385D0090012269460948D3
:10177000FEF78CFF641CAC42F5D3064909688A6801
:1017800042F001028A60B04201D10020F8BD012080
:10179000F8BD0000080000202DE9F84304460020B1
:1017A0008DF8000021781D4E491C701894F80680B1
:1017B00050F8042CD4F802503046091FFFF7CCFF34
:1017C00018B100F055F8BDE8F88330780121FFF733
:1017D00061FF2846FFF7A4FF4FF0FF3655280AD0D7
:1017E000AA208DF800000D4833460122694644388E
:1017F000FFF764FDE7E70A4F012220213846FFF793
:101800001AF942462946E01D00F0EEF88DF8000076
:10181000002220213846FFF70EF9E4E7640000209B
:101820000000024010B586B0082904D8012307281B
:1018300006D9FF2802D0042006B010BD009309E0AD
:10184000C0F10802D2B2914200D9114600220092A2
:10185000CDE902010193FEF7E5FF0220049005A9FE
:101860006846FEF74BFF0446FEF794FF2046E3E789
:1018700008B57F208DF800004FF0FF330122694644
:101880000148FFF71BFD08BD2000002010B50178BE
:101890000446491C0844091F50F8042C2046FFF751
:1018A0005BFF18B1BDE81040FFF7E2BF20780721C9
:1018B000FFF7F0FEBDE810404FF0FF33072202496A
:1018C0000248FFF7FBBC00000000002020000020C1
:1018D00038B5044655208DF8000014480178491C9D
:1018E0000844091F50F8042C1048FFF735FF10B1C9
:1018F000FFF7BEFF38BD20780121FFF7CBFED4F8FB
:1019000002402046FFF70CFF552808484FF0FF33F0
:101910004FF001026946A0F1440002D0FFF7CEFC6F
:1019200038BDFFF7CBFC641CA04738BD6400002025
:10193000FFF794F8FFF788FDFFF71AFDFFF764FD46
:101940000B490A4808600846FEF7B3FE00B1FEE7FF
:10195000084D4FF4005421462846FFF767F810B1B0
:1019600000F00AF8F7E700F00FF80000003002403E
:1019700008000020000802400248016881F308883E
:101980004068004700800008164C4FF0FF35C82122
:101990001448FEF7FEFC13492B460122A1F1440036
:1019A000FFF72CFC0F4822782B46611C4438FFF7C8
:1019B00025FC607861380428E9D2DFE800F00206EF
:1019C0000A0E0848FFF762FFE1E70648FFF780FFCD
:1019D000DDE70448FFF7E0FED9E70248FFF76AFEBB
:1019E000D5E70000640000202DE9F04116460F46BF
:1019F00080460025FEF716FF002408E0002318F8B3
:101A0000042039191846FEF7CFFE0546641CB4427F
:101A1000F4D3FEF7BFFE2846BDE8F0814FF04070DA
:101A2000E1EE100A70470000000000000000010213
:101A30000304060708090000000001020304000077
:101A4000601A0008000000202000000000020008CA
:101A5000801A000820000020900700001C020008E7
:101A600061626364656667000000000000000000BA
:101A70000100000010000000000000000024F4003D
:04000005080001C529
:00000001FF
